{
  "contractName": "Register",
  "abi": [
    {
      "inputs": [],
      "stateMutability": "nonpayable",
      "type": "constructor"
    },
    {
      "inputs": [
        {
          "internalType": "address",
          "name": "user",
          "type": "address"
        },
        {
          "internalType": "string",
          "name": "name",
          "type": "string"
        },
        {
          "internalType": "string",
          "name": "username",
          "type": "string"
        },
        {
          "internalType": "uint256",
          "name": "role",
          "type": "uint256"
        },
        {
          "internalType": "string",
          "name": "companyName",
          "type": "string"
        },
        {
          "internalType": "string",
          "name": "licenseNumber",
          "type": "string"
        },
        {
          "internalType": "string",
          "name": "password",
          "type": "string"
        }
      ],
      "name": "registerUser",
      "outputs": [],
      "stateMutability": "nonpayable",
      "type": "function"
    },
    {
      "inputs": [
        {
          "internalType": "string",
          "name": "username",
          "type": "string"
        },
        {
          "internalType": "string",
          "name": "password",
          "type": "string"
        }
      ],
      "name": "loginUser",
      "outputs": [
        {
          "internalType": "bool",
          "name": "",
          "type": "bool"
        }
      ],
      "stateMutability": "view",
      "type": "function",
      "constant": true
    },
    {
      "inputs": [
        {
          "internalType": "address",
          "name": "user",
          "type": "address"
        }
      ],
      "name": "getUserRole",
      "outputs": [
        {
          "internalType": "uint256",
          "name": "",
          "type": "uint256"
        }
      ],
      "stateMutability": "view",
      "type": "function",
      "constant": true
    },
    {
      "inputs": [],
      "name": "viewUsers",
      "outputs": [
        {
          "internalType": "address[]",
          "name": "",
          "type": "address[]"
        },
        {
          "internalType": "string[]",
          "name": "",
          "type": "string[]"
        },
        {
          "internalType": "string[]",
          "name": "",
          "type": "string[]"
        },
        {
          "internalType": "uint256[]",
          "name": "",
          "type": "uint256[]"
        },
        {
          "internalType": "string[]",
          "name": "",
          "type": "string[]"
        },
        {
          "internalType": "string[]",
          "name": "",
          "type": "string[]"
        },
        {
          "internalType": "string[]",
          "name": "",
          "type": "string[]"
        }
      ],
      "stateMutability": "view",
      "type": "function",
      "constant": true
    }
  ],
  "bytecode": "0x608060405234801561001057600080fd5b50611e6f806100206000396000f3fe608060405234801561001057600080fd5b506004361061004c5760003560e01c806314ebdb791461005157806322ce12e51461007557806327820851146100a55780638916d8b7146100d5575b600080fd5b6100596100f1565b60405161006c97969594939291906116ab565b60405180910390f35b61008f600480360381019061008a9190611894565b610a85565b60405161009c9190611927565b60405180910390f35b6100bf60048036038101906100ba919061196e565b610ee1565b6040516100cc91906119aa565b60405180910390f35b6100ef60048036038101906100ea91906119f1565b610fbc565b005b6060806060806060806060600060028054905067ffffffffffffffff81111561011d5761011c611769565b5b60405190808252806020026020018201604052801561014b5781602001602082028036833780820191505090505b509050600060028054905067ffffffffffffffff81111561016f5761016e611769565b5b6040519080825280602002602001820160405280156101a257816020015b606081526020019060019003908161018d5790505b509050600060028054905067ffffffffffffffff8111156101c6576101c5611769565b5b6040519080825280602002602001820160405280156101f957816020015b60608152602001906001900390816101e45790505b509050600060028054905067ffffffffffffffff81111561021d5761021c611769565b5b60405190808252806020026020018201604052801561024b5781602001602082028036833780820191505090505b509050600060028054905067ffffffffffffffff81111561026f5761026e611769565b5b6040519080825280602002602001820160405280156102a257816020015b606081526020019060019003908161028d5790505b509050600060028054905067ffffffffffffffff8111156102c6576102c5611769565b5b6040519080825280602002602001820160405280156102f957816020015b60608152602001906001900390816102e45790505b509050600060028054905067ffffffffffffffff81111561031d5761031c611769565b5b60405190808252806020026020018201604052801561035057816020015b606081526020019060019003908161033b5790505b50905060005b600280549050811015610a5f576002818154811061037757610376611b1f565b5b9060005260206000200160009054906101000a900473ffffffffffffffffffffffffffffffffffffffff168882815181106103b5576103b4611b1f565b5b602002602001019073ffffffffffffffffffffffffffffffffffffffff16908173ffffffffffffffffffffffffffffffffffffffff16815250506000806002838154811061040657610405611b1f565b5b9060005260206000200160009054906101000a900473ffffffffffffffffffffffffffffffffffffffff1673ffffffffffffffffffffffffffffffffffffffff1673ffffffffffffffffffffffffffffffffffffffff168152602001908152602001600020600001805461047990611b7d565b80601f01602080910402602001604051908101604052809291908181526020018280546104a590611b7d565b80156104f25780601f106104c7576101008083540402835291602001916104f2565b820191906000526020600020905b8154815290600101906020018083116104d557829003601f168201915b505050505087828151811061050a57610509611b1f565b5b60200260200101819052506000806002838154811061052c5761052b611b1f565b5b9060005260206000200160009054906101000a900473ffffffffffffffffffffffffffffffffffffffff1673ffffffffffffffffffffffffffffffffffffffff1673ffffffffffffffffffffffffffffffffffffffff168152602001908152602001600020600101805461059f90611b7d565b80601f01602080910402602001604051908101604052809291908181526020018280546105cb90611b7d565b80156106185780601f106105ed57610100808354040283529160200191610618565b820191906000526020600020905b8154815290600101906020018083116105fb57829003601f168201915b50505050508682815181106106305761062f611b1f565b5b60200260200101819052506000806002838154811061065257610651611b1f565b5b9060005260206000200160009054906101000a900473ffffffffffffffffffffffffffffffffffffffff1673ffffffffffffffffffffffffffffffffffffffff1673ffffffffffffffffffffffffffffffffffffffff168152602001908152602001600020600201548582815181106106ce576106cd611b1f565b5b602002602001018181525050600080600283815481106106f1576106f0611b1f565b5b9060005260206000200160009054906101000a900473ffffffffffffffffffffffffffffffffffffffff1673ffffffffffffffffffffffffffffffffffffffff1673ffffffffffffffffffffffffffffffffffffffff168152602001908152602001600020600301805461076490611b7d565b80601f016020809104026020016040519081016040528092919081815260200182805461079090611b7d565b80156107dd5780601f106107b2576101008083540402835291602001916107dd565b820191906000526020600020905b8154815290600101906020018083116107c057829003601f168201915b50505050508482815181106107f5576107f4611b1f565b5b60200260200101819052506000806002838154811061081757610816611b1f565b5b9060005260206000200160009054906101000a900473ffffffffffffffffffffffffffffffffffffffff1673ffffffffffffffffffffffffffffffffffffffff1673ffffffffffffffffffffffffffffffffffffffff168152602001908152602001600020600401805461088a90611b7d565b80601f01602080910402602001604051908101604052809291908181526020018280546108b690611b7d565b80156109035780601f106108d857610100808354040283529160200191610903565b820191906000526020600020905b8154815290600101906020018083116108e657829003601f168201915b505050505083828151811061091b5761091a611b1f565b5b60200260200101819052506000806002838154811061093d5761093c611b1f565b5b9060005260206000200160009054906101000a900473ffffffffffffffffffffffffffffffffffffffff1673ffffffffffffffffffffffffffffffffffffffff1673ffffffffffffffffffffffffffffffffffffffff16815260200190815260200160002060050180546109b090611b7d565b80601f01602080910402602001604051908101604052809291908181526020018280546109dc90611b7d565b8015610a295780601f106109fe57610100808354040283529160200191610a29565b820191906000526020600020905b815481529060010190602001808311610a0c57829003601f168201915b5050505050828281518110610a4157610a40611b1f565b5b60200260200101819052508080610a5790611bdd565b915050610356565b50868686868686869d509d509d509d509d509d509d505050505050505090919293949596565b600080600184604051610a989190611c61565b908152602001604051809103902060009054906101000a900473ffffffffffffffffffffffffffffffffffffffff169050600073ffffffffffffffffffffffffffffffffffffffff168173ffffffffffffffffffffffffffffffffffffffff1603610b38576040517f08c379a0000000000000000000000000000000000000000000000000000000008152600401610b2f90611cd5565b60405180910390fd5b60008060008373ffffffffffffffffffffffffffffffffffffffff1673ffffffffffffffffffffffffffffffffffffffff1681526020019081526020016000206040518060e0016040529081600082018054610b9390611b7d565b80601f0160208091040260200160405190810160405280929190818152602001828054610bbf90611b7d565b8015610c0c5780601f10610be157610100808354040283529160200191610c0c565b820191906000526020600020905b815481529060010190602001808311610bef57829003601f168201915b50505050508152602001600182018054610c2590611b7d565b80601f0160208091040260200160405190810160405280929190818152602001828054610c5190611b7d565b8015610c9e5780601f10610c7357610100808354040283529160200191610c9e565b820191906000526020600020905b815481529060010190602001808311610c8157829003601f168201915b5050505050815260200160028201548152602001600382018054610cc190611b7d565b80601f0160208091040260200160405190810160405280929190818152602001828054610ced90611b7d565b8015610d3a5780601f10610d0f57610100808354040283529160200191610d3a565b820191906000526020600020905b815481529060010190602001808311610d1d57829003601f168201915b50505050508152602001600482018054610d5390611b7d565b80601f0160208091040260200160405190810160405280929190818152602001828054610d7f90611b7d565b8015610dcc5780601f10610da157610100808354040283529160200191610dcc565b820191906000526020600020905b815481529060010190602001808311610daf57829003601f168201915b50505050508152602001600582018054610de590611b7d565b80601f0160208091040260200160405190810160405280929190818152602001828054610e1190611b7d565b8015610e5e5780601f10610e3357610100808354040283529160200191610e5e565b820191906000526020600020905b815481529060010190602001808311610e4157829003601f168201915b505050505081526020016006820160009054906101000a900460ff161515151581525050905083604051602001610e959190611c61565b604051602081830303815290604052805190602001208160a00151604051602001610ec09190611c61565b60405160208183030381529060405280519060200120149250505092915050565b6000816000808273ffffffffffffffffffffffffffffffffffffffff1673ffffffffffffffffffffffffffffffffffffffff16815260200190815260200160002060060160009054906101000a900460ff16610f72576040517f08c379a0000000000000000000000000000000000000000000000000000000008152600401610f6990611d41565b60405180910390fd5b6000808473ffffffffffffffffffffffffffffffffffffffff1673ffffffffffffffffffffffffffffffffffffffff16815260200190815260200160002060020154915050919050565b866000808273ffffffffffffffffffffffffffffffffffffffff1673ffffffffffffffffffffffffffffffffffffffff16815260200190815260200160002060060160009054906101000a900460ff161561104c576040517f08c379a000000000000000000000000000000000000000000000000000000000815260040161104390611dad565b60405180910390fd5b600073ffffffffffffffffffffffffffffffffffffffff166001876040516110749190611c61565b908152602001604051809103902060009054906101000a900473ffffffffffffffffffffffffffffffffffffffff1673ffffffffffffffffffffffffffffffffffffffff16146110f9576040517f08c379a00000000000000000000000000000000000000000000000000000000081526004016110f090611e19565b60405180910390fd5b6040518060e00160405280888152602001878152602001868152602001858152602001848152602001838152602001600115158152506000808a73ffffffffffffffffffffffffffffffffffffffff1673ffffffffffffffffffffffffffffffffffffffff16815260200190815260200160002060008201518160000190805190602001906111899291906112f5565b5060208201518160010190805190602001906111a69291906112f5565b506040820151816002015560608201518160030190805190602001906111cd9291906112f5565b5060808201518160040190805190602001906111ea9291906112f5565b5060a08201518160050190805190602001906112079291906112f5565b5060c08201518160060160006101000a81548160ff0219169083151502179055509050506002889080600181540180825580915050600190039060005260206000200160009091909190916101000a81548173ffffffffffffffffffffffffffffffffffffffff021916908373ffffffffffffffffffffffffffffffffffffffff1602179055508760018760405161129f9190611c61565b908152602001604051809103902060006101000a81548173ffffffffffffffffffffffffffffffffffffffff021916908373ffffffffffffffffffffffffffffffffffffffff1602179055505050505050505050565b82805461130190611b7d565b90600052602060002090601f016020900481019282611323576000855561136a565b82601f1061133c57805160ff191683800117855561136a565b8280016001018555821561136a579182015b8281111561136957825182559160200191906001019061134e565b5b509050611377919061137b565b5090565b5b8082111561139457600081600090555060010161137c565b5090565b600081519050919050565b600082825260208201905092915050565b6000819050602082019050919050565b600073ffffffffffffffffffffffffffffffffffffffff82169050919050565b60006113ef826113c4565b9050919050565b6113ff816113e4565b82525050565b600061141183836113f6565b60208301905092915050565b6000602082019050919050565b600061143582611398565b61143f81856113a3565b935061144a836113b4565b8060005b8381101561147b5781516114628882611405565b975061146d8361141d565b92505060018101905061144e565b5085935050505092915050565b600081519050919050565b600082825260208201905092915050565b6000819050602082019050919050565b600081519050919050565b600082825260208201905092915050565b60005b838110156114ee5780820151818401526020810190506114d3565b838111156114fd576000848401525b50505050565b6000601f19601f8301169050919050565b600061151f826114b4565b61152981856114bf565b93506115398185602086016114d0565b61154281611503565b840191505092915050565b60006115598383611514565b905092915050565b6000602082019050919050565b600061157982611488565b6115838185611493565b935083602082028501611595856114a4565b8060005b858110156115d157848403895281516115b2858261154d565b94506115bd83611561565b925060208a01995050600181019050611599565b50829750879550505050505092915050565b600081519050919050565b600082825260208201905092915050565b6000819050602082019050919050565b6000819050919050565b6116228161160f565b82525050565b60006116348383611619565b60208301905092915050565b6000602082019050919050565b6000611658826115e3565b61166281856115ee565b935061166d836115ff565b8060005b8381101561169e5781516116858882611628565b975061169083611640565b925050600181019050611671565b5085935050505092915050565b600060e08201905081810360008301526116c5818a61142a565b905081810360208301526116d9818961156e565b905081810360408301526116ed818861156e565b90508181036060830152611701818761164d565b90508181036080830152611715818661156e565b905081810360a0830152611729818561156e565b905081810360c083015261173d818461156e565b905098975050505050505050565b6000604051905090565b600080fd5b600080fd5b600080fd5b600080fd5b7f4e487b7100000000000000000000000000000000000000000000000000000000600052604160045260246000fd5b6117a182611503565b810181811067ffffffffffffffff821117156117c0576117bf611769565b5b80604052505050565b60006117d361174b565b90506117df8282611798565b919050565b600067ffffffffffffffff8211156117ff576117fe611769565b5b61180882611503565b9050602081019050919050565b82818337600083830152505050565b6000611837611832846117e4565b6117c9565b90508281526020810184848401111561185357611852611764565b5b61185e848285611815565b509392505050565b600082601f83011261187b5761187a61175f565b5b813561188b848260208601611824565b91505092915050565b600080604083850312156118ab576118aa611755565b5b600083013567ffffffffffffffff8111156118c9576118c861175a565b5b6118d585828601611866565b925050602083013567ffffffffffffffff8111156118f6576118f561175a565b5b61190285828601611866565b9150509250929050565b60008115159050919050565b6119218161190c565b82525050565b600060208201905061193c6000830184611918565b92915050565b61194b816113e4565b811461195657600080fd5b50565b60008135905061196881611942565b92915050565b60006020828403121561198457611983611755565b5b600061199284828501611959565b91505092915050565b6119a48161160f565b82525050565b60006020820190506119bf600083018461199b565b92915050565b6119ce8161160f565b81146119d957600080fd5b50565b6000813590506119eb816119c5565b92915050565b600080600080600080600060e0888a031215611a1057611a0f611755565b5b6000611a1e8a828b01611959565b975050602088013567ffffffffffffffff811115611a3f57611a3e61175a565b5b611a4b8a828b01611866565b965050604088013567ffffffffffffffff811115611a6c57611a6b61175a565b5b611a788a828b01611866565b9550506060611a898a828b016119dc565b945050608088013567ffffffffffffffff811115611aaa57611aa961175a565b5b611ab68a828b01611866565b93505060a088013567ffffffffffffffff811115611ad757611ad661175a565b5b611ae38a828b01611866565b92505060c088013567ffffffffffffffff811115611b0457611b0361175a565b5b611b108a828b01611866565b91505092959891949750929550565b7f4e487b7100000000000000000000000000000000000000000000000000000000600052603260045260246000fd5b7f4e487b7100000000000000000000000000000000000000000000000000000000600052602260045260246000fd5b60006002820490506001821680611b9557607f821691505b602082108103611ba857611ba7611b4e565b5b50919050565b7f4e487b7100000000000000000000000000000000000000000000000000000000600052601160045260246000fd5b6000611be88261160f565b91507fffffffffffffffffffffffffffffffffffffffffffffffffffffffffffffffff8203611c1a57611c19611bae565b5b600182019050919050565b600081905092915050565b6000611c3b826114b4565b611c458185611c25565b9350611c558185602086016114d0565b80840191505092915050565b6000611c6d8284611c30565b915081905092915050565b600082825260208201905092915050565b7f55736572206e6f7420666f756e64000000000000000000000000000000000000600082015250565b6000611cbf600e83611c78565b9150611cca82611c89565b602082019050919050565b60006020820190508181036000830152611cee81611cb2565b9050919050565b7f55736572206e6f74207265676973746572656400000000000000000000000000600082015250565b6000611d2b601383611c78565b9150611d3682611cf5565b602082019050919050565b60006020820190508181036000830152611d5a81611d1e565b9050919050565b7f5573657220616c72656164792072656769737465726564000000000000000000600082015250565b6000611d97601783611c78565b9150611da282611d61565b602082019050919050565b60006020820190508181036000830152611dc681611d8a565b9050919050565b7f557365726e616d6520616c726561647920657869737473000000000000000000600082015250565b6000611e03601783611c78565b9150611e0e82611dcd565b602082019050919050565b60006020820190508181036000830152611e3281611df6565b905091905056fea2646970667358221220c2010787a559a8acc9fed55deb594665f3a8bc05318baa2b3607e4a6736aabdd64736f6c634300080d0033",
  "immutableReferences": {},
  "source": "// SPDX-License-Identifier: MIT\npragma solidity ^0.8.0;\n\ncontract Register {\n    struct User {\n        string name;\n        string username;\n        uint role;\n        string companyName;\n        string licenseNumber;\n        string password;\n        bool registered;\n    }\n\n    mapping(address => User) private users;\n    mapping(string => address) private usernameToAddress;\n    address[] private userAddresses;\n\n    modifier onlyNotRegistered(address user) {\n        require(!users[user].registered, \"User already registered\");\n        _;\n    }\n\n    modifier onlyRegistered(address user) {\n        require(users[user].registered, \"User not registered\");\n        _;\n    }\n\n    constructor() {}\n\n    function registerUser(address user, string memory name, string memory username, uint role, string memory companyName, string memory licenseNumber, string memory password) public onlyNotRegistered(user) {\n        require(usernameToAddress[username] == address(0), \"Username already exists\");\n        \n        users[user] = User(name, username, role, companyName, licenseNumber, password, true);\n        userAddresses.push(user);\n        usernameToAddress[username] = user;\n    }\n\n   function loginUser(string memory username, string memory password) public view returns (bool) {\n    address userAddress = usernameToAddress[username];\n    require(userAddress != address(0), \"User not found\");\n\n    // Retrieve the user data using the Ethereum address mapped to the username\n    User memory user = users[userAddress];\n    \n    // Check if the provided password matches the stored password for the user\n    return keccak256(abi.encodePacked(user.password)) == keccak256(abi.encodePacked(password));\n}\n\n    function getUserRole(address user) public view onlyRegistered(user) returns (uint) {\n        return users[user].role;\n    }\n\n    function viewUsers() public view returns(address[] memory, string[] memory, string[] memory, uint[] memory, string[] memory, string[] memory, string[] memory) {\n        address[] memory addresses = new address[](userAddresses.length);\n        string[] memory names = new string[](userAddresses.length);\n        string[] memory usernames = new string[](userAddresses.length);\n        uint[] memory roles = new uint[](userAddresses.length);\n        string[] memory companyNames = new string[](userAddresses.length);\n        string[] memory licenseNumbers = new string[](userAddresses.length);\n        string[] memory passwords = new string[](userAddresses.length);\n\n        for (uint i = 0; i < userAddresses.length; i++) {\n            addresses[i] = userAddresses[i];\n            names[i] = users[userAddresses[i]].name;\n            usernames[i] = users[userAddresses[i]].username;\n            roles[i] = users[userAddresses[i]].role;\n            companyNames[i] = users[userAddresses[i]].companyName;\n            licenseNumbers[i] = users[userAddresses[i]].licenseNumber;\n            passwords[i] = users[userAddresses[i]].password;\n        }\n\n        return (addresses, names, usernames, roles, companyNames, licenseNumbers, passwords);\n    }\n}\n",
  "sourcePath": "/Users/rsdhanushree/Desktop/supply-chain-truffle-react/contracts/Register.sol",
  "compiler": {
    "name": "solc",
    "version": "0.8.13+commit.abaa5c0e.Emscripten.clang"
  },
  "schemaVersion": "3.4.16",
  "updatedAt": "2024-05-29T04:28:55.918Z",
  "networkType": "ethereum",
  "devdoc": {
    "kind": "dev",
    "methods": {},
    "version": 1
  },
  "userdoc": {
    "kind": "user",
    "methods": {},
    "version": 1
  }
}