{
  "contractName": "SupplyChain",
  "abi": [
    {
      "inputs": [],
      "stateMutability": "nonpayable",
      "type": "constructor"
    },
    {
      "anonymous": false,
      "inputs": [
        {
          "indexed": false,
          "internalType": "uint256",
          "name": "id",
          "type": "uint256"
        },
        {
          "indexed": false,
          "internalType": "string",
          "name": "name",
          "type": "string"
        },
        {
          "indexed": false,
          "internalType": "address",
          "name": "wholesaler",
          "type": "address"
        }
      ],
      "name": "MedicineAllocated",
      "type": "event"
    },
    {
      "anonymous": false,
      "inputs": [
        {
          "indexed": false,
          "internalType": "uint256",
          "name": "id",
          "type": "uint256"
        },
        {
          "indexed": false,
          "internalType": "string",
          "name": "name",
          "type": "string"
        },
        {
          "indexed": false,
          "internalType": "address",
          "name": "distributor",
          "type": "address"
        }
      ],
      "name": "MedicineAllocatedToDistributor",
      "type": "event"
    },
    {
      "anonymous": false,
      "inputs": [
        {
          "indexed": false,
          "internalType": "uint256",
          "name": "id",
          "type": "uint256"
        },
        {
          "indexed": false,
          "internalType": "string",
          "name": "name",
          "type": "string"
        },
        {
          "indexed": false,
          "internalType": "address",
          "name": "hospital",
          "type": "address"
        }
      ],
      "name": "MedicineAllocatedToHospital",
      "type": "event"
    },
    {
      "anonymous": false,
      "inputs": [
        {
          "indexed": false,
          "internalType": "uint256",
          "name": "id",
          "type": "uint256"
        },
        {
          "indexed": false,
          "internalType": "string",
          "name": "name",
          "type": "string"
        }
      ],
      "name": "MedicineCreated",
      "type": "event"
    },
    {
      "anonymous": false,
      "inputs": [
        {
          "indexed": false,
          "internalType": "uint256",
          "name": "id",
          "type": "uint256"
        },
        {
          "indexed": false,
          "internalType": "string",
          "name": "name",
          "type": "string"
        },
        {
          "indexed": false,
          "internalType": "address",
          "name": "purchaser",
          "type": "address"
        }
      ],
      "name": "MedicinePurchased",
      "type": "event"
    },
    {
      "anonymous": false,
      "inputs": [
        {
          "indexed": false,
          "internalType": "uint256",
          "name": "id",
          "type": "uint256"
        },
        {
          "indexed": false,
          "internalType": "string",
          "name": "name",
          "type": "string"
        },
        {
          "indexed": false,
          "internalType": "address",
          "name": "hospital",
          "type": "address"
        }
      ],
      "name": "MedicineReceived",
      "type": "event"
    },
    {
      "anonymous": false,
      "inputs": [
        {
          "indexed": true,
          "internalType": "uint256",
          "name": "id",
          "type": "uint256"
        },
        {
          "indexed": false,
          "internalType": "string",
          "name": "name",
          "type": "string"
        },
        {
          "indexed": false,
          "internalType": "address",
          "name": "hospital",
          "type": "address"
        }
      ],
      "name": "MedicineShippedToHospital",
      "type": "event"
    },
    {
      "anonymous": false,
      "inputs": [
        {
          "indexed": false,
          "internalType": "uint256",
          "name": "id",
          "type": "uint256"
        },
        {
          "indexed": false,
          "internalType": "string",
          "name": "name",
          "type": "string"
        },
        {
          "indexed": false,
          "internalType": "bool",
          "name": "check",
          "type": "bool"
        }
      ],
      "name": "QualityCheckPerformed",
      "type": "event"
    },
    {
      "inputs": [
        {
          "internalType": "uint256",
          "name": "",
          "type": "uint256"
        }
      ],
      "name": "isMedicineChecked",
      "outputs": [
        {
          "internalType": "bool",
          "name": "",
          "type": "bool"
        }
      ],
      "stateMutability": "view",
      "type": "function",
      "constant": true
    },
    {
      "inputs": [],
      "name": "medicineCount",
      "outputs": [
        {
          "internalType": "uint256",
          "name": "",
          "type": "uint256"
        }
      ],
      "stateMutability": "view",
      "type": "function",
      "constant": true
    },
    {
      "inputs": [
        {
          "internalType": "string",
          "name": "",
          "type": "string"
        }
      ],
      "name": "medicineIdByIpfsHash",
      "outputs": [
        {
          "internalType": "uint256",
          "name": "",
          "type": "uint256"
        }
      ],
      "stateMutability": "view",
      "type": "function",
      "constant": true
    },
    {
      "inputs": [
        {
          "internalType": "uint256",
          "name": "",
          "type": "uint256"
        }
      ],
      "name": "medicineOwnership",
      "outputs": [
        {
          "internalType": "address",
          "name": "manufacturer",
          "type": "address"
        },
        {
          "internalType": "address",
          "name": "wholesaler",
          "type": "address"
        },
        {
          "internalType": "address",
          "name": "distributor",
          "type": "address"
        },
        {
          "internalType": "address",
          "name": "hospital",
          "type": "address"
        },
        {
          "internalType": "address",
          "name": "patient",
          "type": "address"
        },
        {
          "internalType": "string",
          "name": "ipfsHashMedicine",
          "type": "string"
        },
        {
          "internalType": "string",
          "name": "ipfsHashDistributor",
          "type": "string"
        },
        {
          "internalType": "string",
          "name": "ipfsHashHospital",
          "type": "string"
        }
      ],
      "stateMutability": "view",
      "type": "function",
      "constant": true
    },
    {
      "inputs": [
        {
          "internalType": "uint256",
          "name": "",
          "type": "uint256"
        }
      ],
      "name": "medicines",
      "outputs": [
        {
          "internalType": "uint256",
          "name": "id",
          "type": "uint256"
        },
        {
          "internalType": "string",
          "name": "prefix",
          "type": "string"
        },
        {
          "internalType": "string",
          "name": "name",
          "type": "string"
        },
        {
          "internalType": "string",
          "name": "composition",
          "type": "string"
        },
        {
          "internalType": "string",
          "name": "description",
          "type": "string"
        },
        {
          "internalType": "string",
          "name": "manufacturerDate",
          "type": "string"
        },
        {
          "internalType": "string",
          "name": "expiryDate",
          "type": "string"
        },
        {
          "internalType": "uint256",
          "name": "price",
          "type": "uint256"
        },
        {
          "internalType": "string",
          "name": "ipfsHash",
          "type": "string"
        },
        {
          "internalType": "string",
          "name": "currentStatus",
          "type": "string"
        }
      ],
      "stateMutability": "view",
      "type": "function",
      "constant": true
    },
    {
      "inputs": [
        {
          "internalType": "string",
          "name": "_prefix",
          "type": "string"
        },
        {
          "internalType": "string",
          "name": "_name",
          "type": "string"
        },
        {
          "internalType": "string",
          "name": "_composition",
          "type": "string"
        },
        {
          "internalType": "string",
          "name": "_description",
          "type": "string"
        },
        {
          "internalType": "string",
          "name": "_manufacturerDate",
          "type": "string"
        },
        {
          "internalType": "string",
          "name": "_expiryDate",
          "type": "string"
        },
        {
          "internalType": "uint256",
          "name": "_price",
          "type": "uint256"
        },
        {
          "internalType": "string",
          "name": "_ipfsHash",
          "type": "string"
        }
      ],
      "name": "createMedicine",
      "outputs": [],
      "stateMutability": "nonpayable",
      "type": "function"
    },
    {
      "inputs": [
        {
          "internalType": "uint256",
          "name": "_id",
          "type": "uint256"
        },
        {
          "internalType": "address",
          "name": "_wholesaler",
          "type": "address"
        },
        {
          "internalType": "string",
          "name": "_medicineIpfsHash",
          "type": "string"
        }
      ],
      "name": "allocateMedicine",
      "outputs": [],
      "stateMutability": "nonpayable",
      "type": "function"
    },
    {
      "inputs": [
        {
          "internalType": "address",
          "name": "_address",
          "type": "address"
        }
      ],
      "name": "getAllocatedMedicineByAddress",
      "outputs": [
        {
          "internalType": "uint256[]",
          "name": "ids",
          "type": "uint256[]"
        },
        {
          "internalType": "string[]",
          "name": "prefixes",
          "type": "string[]"
        },
        {
          "internalType": "string[]",
          "name": "names",
          "type": "string[]"
        },
        {
          "internalType": "string[]",
          "name": "compositions",
          "type": "string[]"
        },
        {
          "internalType": "string[]",
          "name": "descriptions",
          "type": "string[]"
        },
        {
          "internalType": "string[]",
          "name": "manufacturerDates",
          "type": "string[]"
        },
        {
          "internalType": "string[]",
          "name": "expiryDates",
          "type": "string[]"
        },
        {
          "internalType": "uint256[]",
          "name": "prices",
          "type": "uint256[]"
        },
        {
          "internalType": "string[]",
          "name": "statuses",
          "type": "string[]"
        },
        {
          "internalType": "string[]",
          "name": "ipfsHashes",
          "type": "string[]"
        }
      ],
      "stateMutability": "view",
      "type": "function",
      "constant": true
    },
    {
      "inputs": [
        {
          "internalType": "uint256",
          "name": "_id",
          "type": "uint256"
        }
      ],
      "name": "getMedicineById",
      "outputs": [
        {
          "internalType": "uint256",
          "name": "id",
          "type": "uint256"
        },
        {
          "internalType": "string",
          "name": "prefix",
          "type": "string"
        },
        {
          "internalType": "string",
          "name": "name",
          "type": "string"
        },
        {
          "internalType": "string",
          "name": "composition",
          "type": "string"
        },
        {
          "internalType": "string",
          "name": "description",
          "type": "string"
        },
        {
          "internalType": "string",
          "name": "manufacturerDate",
          "type": "string"
        },
        {
          "internalType": "string",
          "name": "expiryDate",
          "type": "string"
        },
        {
          "internalType": "uint256",
          "name": "price",
          "type": "uint256"
        },
        {
          "internalType": "string",
          "name": "ipfsHash",
          "type": "string"
        },
        {
          "internalType": "address",
          "name": "wholesaler",
          "type": "address"
        },
        {
          "internalType": "string",
          "name": "currentStatus",
          "type": "string"
        }
      ],
      "stateMutability": "view",
      "type": "function",
      "constant": true
    },
    {
      "inputs": [
        {
          "internalType": "uint256",
          "name": "_id",
          "type": "uint256"
        },
        {
          "internalType": "address",
          "name": "_distributor",
          "type": "address"
        },
        {
          "internalType": "string",
          "name": "_ipfsHash",
          "type": "string"
        }
      ],
      "name": "allocateDistributor",
      "outputs": [],
      "stateMutability": "nonpayable",
      "type": "function"
    },
    {
      "inputs": [
        {
          "internalType": "uint256",
          "name": "_id",
          "type": "uint256"
        },
        {
          "internalType": "bool",
          "name": "_checkQuality",
          "type": "bool"
        }
      ],
      "name": "performQualityCheck",
      "outputs": [],
      "stateMutability": "nonpayable",
      "type": "function"
    },
    {
      "inputs": [
        {
          "internalType": "uint256",
          "name": "_id",
          "type": "uint256"
        },
        {
          "internalType": "address",
          "name": "_hospital",
          "type": "address"
        },
        {
          "internalType": "string",
          "name": "_ipfsHash",
          "type": "string"
        }
      ],
      "name": "allocateMedicineToHospital",
      "outputs": [],
      "stateMutability": "nonpayable",
      "type": "function"
    },
    {
      "inputs": [
        {
          "internalType": "uint256",
          "name": "_id",
          "type": "uint256"
        }
      ],
      "name": "shipMedicineToHospital",
      "outputs": [],
      "stateMutability": "nonpayable",
      "type": "function"
    },
    {
      "inputs": [
        {
          "internalType": "uint256",
          "name": "_id",
          "type": "uint256"
        },
        {
          "internalType": "string",
          "name": "_manufacturerHash",
          "type": "string"
        },
        {
          "internalType": "string",
          "name": "_wholesalerHash",
          "type": "string"
        },
        {
          "internalType": "string",
          "name": "_distributorHash",
          "type": "string"
        }
      ],
      "name": "verifyIPFSHashes",
      "outputs": [],
      "stateMutability": "nonpayable",
      "type": "function"
    },
    {
      "inputs": [
        {
          "internalType": "uint256",
          "name": "_id",
          "type": "uint256"
        }
      ],
      "name": "sellMedicine",
      "outputs": [],
      "stateMutability": "payable",
      "type": "function",
      "payable": true
    },
    {
      "inputs": [
        {
          "internalType": "uint256",
          "name": "_id",
          "type": "uint256"
        }
      ],
      "name": "buyMedicine",
      "outputs": [],
      "stateMutability": "payable",
      "type": "function",
      "payable": true
    },
    {
      "inputs": [
        {
          "internalType": "uint256",
          "name": "_id",
          "type": "uint256"
        }
      ],
      "name": "trackMedicine",
      "outputs": [
        {
          "internalType": "uint256",
          "name": "id",
          "type": "uint256"
        },
        {
          "internalType": "string",
          "name": "prefix",
          "type": "string"
        },
        {
          "internalType": "string",
          "name": "name",
          "type": "string"
        },
        {
          "internalType": "string",
          "name": "composition",
          "type": "string"
        },
        {
          "internalType": "string",
          "name": "description",
          "type": "string"
        },
        {
          "internalType": "string",
          "name": "manufacturerDate",
          "type": "string"
        },
        {
          "internalType": "string",
          "name": "expiryDate",
          "type": "string"
        },
        {
          "internalType": "uint256",
          "name": "price",
          "type": "uint256"
        },
        {
          "internalType": "string",
          "name": "currentStatus",
          "type": "string"
        }
      ],
      "stateMutability": "view",
      "type": "function",
      "constant": true
    }
  ],
  "bytecode": "0x608060405234801561001057600080fd5b50615d7d80620000216000396000f3fe6080604052600436106100fe5760003560e01c8063bc4589ca11610095578063e12ab92b11610064578063e12ab92b1461037f578063f1cf6df6146103a8578063f903f7fe146103ed578063faac9e7914610416578063fb5d747514610432576100fe565b8063bc4589ca146102aa578063bffa5cce146102d3578063c85e766d146102fc578063d160888c14610342576100fe565b80638f001323116100d15780638f001323146101e15780639c2142bd146101fd578063a329c33d14610226578063a65f15401461026d576100fe565b806302de6bbc14610103578063194891b6146101475780634dafd4901461018d578063522f744f146101b8575b600080fd5b34801561010f57600080fd5b5061012a60048036038101906101259190614553565b61045b565b60405161013e98979695949392919061465a565b60405180910390f35b34801561015357600080fd5b5061016e60048036038101906101699190614719565b6106db565b6040516101849a99989796959493929190614910565b60405180910390f35b34801561019957600080fd5b506101a2611883565b6040516101af9190614a01565b60405180910390f35b3480156101c457600080fd5b506101df60048036038101906101da9190614553565b611889565b005b6101fb60048036038101906101f69190614553565b611c19565b005b34801561020957600080fd5b50610224600480360381019061021f9190614b51565b611e42565b005b34801561023257600080fd5b5061024d60048036038101906102489190614553565b612116565b6040516102649b9a99989796959493929190614bc0565b60405180910390f35b34801561027957600080fd5b50610294600480360381019061028f9190614553565b612a27565b6040516102a19190614cbe565b60405180910390f35b3480156102b657600080fd5b506102d160048036038101906102cc9190614d05565b612a47565b005b3480156102df57600080fd5b506102fa60048036038101906102f59190614d45565b612c48565b005b34801561030857600080fd5b50610323600480360381019061031e9190614553565b612f3d565b6040516103399a99989796959493929190614e00565b60405180910390f35b34801561034e57600080fd5b5061036960048036038101906103649190614ed4565b6133d1565b6040516103769190614a01565b60405180910390f35b34801561038b57600080fd5b506103a660048036038101906103a19190614b51565b6133ff565b005b3480156103b457600080fd5b506103cf60048036038101906103ca9190614553565b6136d3565b6040516103e499989796959493929190614f1d565b60405180910390f35b3480156103f957600080fd5b50610414600480360381019061040f9190614fdb565b613c47565b005b610430600480360381019061042b9190614553565b613e67565b005b34801561043e57600080fd5b5061045960048036038101906104549190614b51565b61420d565b005b60046020528060005260406000206000915090508060000160009054906101000a900473ffffffffffffffffffffffffffffffffffffffff16908060010160009054906101000a900473ffffffffffffffffffffffffffffffffffffffff16908060020160009054906101000a900473ffffffffffffffffffffffffffffffffffffffff16908060030160009054906101000a900473ffffffffffffffffffffffffffffffffffffffff16908060040160009054906101000a900473ffffffffffffffffffffffffffffffffffffffff169080600501805461053c90615184565b80601f016020809104026020016040519081016040528092919081815260200182805461056890615184565b80156105b55780601f1061058a576101008083540402835291602001916105b5565b820191906000526020600020905b81548152906001019060200180831161059857829003601f168201915b5050505050908060060180546105ca90615184565b80601f01602080910402602001604051908101604052809291908181526020018280546105f690615184565b80156106435780601f1061061857610100808354040283529160200191610643565b820191906000526020600020905b81548152906001019060200180831161062657829003601f168201915b50505050509080600701805461065890615184565b80601f016020809104026020016040519081016040528092919081815260200182805461068490615184565b80156106d15780601f106106a6576101008083540402835291602001916106d1565b820191906000526020600020905b8154815290600101906020018083116106b457829003601f168201915b5050505050905088565b606080606080606080606080606080600080600190505b60025481116108cb578c73ffffffffffffffffffffffffffffffffffffffff166004600083815260200190815260200160002060000160009054906101000a900473ffffffffffffffffffffffffffffffffffffffff1673ffffffffffffffffffffffffffffffffffffffff1614806107cc57508c73ffffffffffffffffffffffffffffffffffffffff166004600083815260200190815260200160002060010160009054906101000a900473ffffffffffffffffffffffffffffffffffffffff1673ffffffffffffffffffffffffffffffffffffffff16145b8061083857508c73ffffffffffffffffffffffffffffffffffffffff166004600083815260200190815260200160002060020160009054906101000a900473ffffffffffffffffffffffffffffffffffffffff1673ffffffffffffffffffffffffffffffffffffffff16145b806108a457508c73ffffffffffffffffffffffffffffffffffffffff166004600083815260200190815260200160002060030160009054906101000a900473ffffffffffffffffffffffffffffffffffffffff1673ffffffffffffffffffffffffffffffffffffffff16145b156108b85781806108b4906151e4565b9250505b80806108c3906151e4565b9150506106f2565b508067ffffffffffffffff8111156108e6576108e5614a26565b5b6040519080825280602002602001820160405280156109145781602001602082028036833780820191505090505b509a508067ffffffffffffffff81111561093157610930614a26565b5b60405190808252806020026020018201604052801561096457816020015b606081526020019060019003908161094f5790505b5099508067ffffffffffffffff81111561098157610980614a26565b5b6040519080825280602002602001820160405280156109b457816020015b606081526020019060019003908161099f5790505b5098508067ffffffffffffffff8111156109d1576109d0614a26565b5b604051908082528060200260200182016040528015610a0457816020015b60608152602001906001900390816109ef5790505b5097508067ffffffffffffffff811115610a2157610a20614a26565b5b604051908082528060200260200182016040528015610a5457816020015b6060815260200190600190039081610a3f5790505b5096508067ffffffffffffffff811115610a7157610a70614a26565b5b604051908082528060200260200182016040528015610aa457816020015b6060815260200190600190039081610a8f5790505b5095508067ffffffffffffffff811115610ac157610ac0614a26565b5b604051908082528060200260200182016040528015610af457816020015b6060815260200190600190039081610adf5790505b5094508067ffffffffffffffff811115610b1157610b10614a26565b5b604051908082528060200260200182016040528015610b3f5781602001602082028036833780820191505090505b5093508067ffffffffffffffff811115610b5c57610b5b614a26565b5b604051908082528060200260200182016040528015610b8f57816020015b6060815260200190600190039081610b7a5790505b5092508067ffffffffffffffff811115610bac57610bab614a26565b5b604051908082528060200260200182016040528015610bdf57816020015b6060815260200190600190039081610bca5790505b509150600080600190505b6002548111611873578d73ffffffffffffffffffffffffffffffffffffffff166004600083815260200190815260200160002060000160009054906101000a900473ffffffffffffffffffffffffffffffffffffffff1673ffffffffffffffffffffffffffffffffffffffff161480610cc457508d73ffffffffffffffffffffffffffffffffffffffff166004600083815260200190815260200160002060010160009054906101000a900473ffffffffffffffffffffffffffffffffffffffff1673ffffffffffffffffffffffffffffffffffffffff16145b80610d3057508d73ffffffffffffffffffffffffffffffffffffffff166004600083815260200190815260200160002060020160009054906101000a900473ffffffffffffffffffffffffffffffffffffffff1673ffffffffffffffffffffffffffffffffffffffff16145b80610d9c57508d73ffffffffffffffffffffffffffffffffffffffff166004600083815260200190815260200160002060030160009054906101000a900473ffffffffffffffffffffffffffffffffffffffff1673ffffffffffffffffffffffffffffffffffffffff16145b156118605760008060008381526020019081526020016000206040518061014001604052908160008201548152602001600182018054610ddb90615184565b80601f0160208091040260200160405190810160405280929190818152602001828054610e0790615184565b8015610e545780601f10610e2957610100808354040283529160200191610e54565b820191906000526020600020905b815481529060010190602001808311610e3757829003601f168201915b50505050508152602001600282018054610e6d90615184565b80601f0160208091040260200160405190810160405280929190818152602001828054610e9990615184565b8015610ee65780601f10610ebb57610100808354040283529160200191610ee6565b820191906000526020600020905b815481529060010190602001808311610ec957829003601f168201915b50505050508152602001600382018054610eff90615184565b80601f0160208091040260200160405190810160405280929190818152602001828054610f2b90615184565b8015610f785780601f10610f4d57610100808354040283529160200191610f78565b820191906000526020600020905b815481529060010190602001808311610f5b57829003601f168201915b50505050508152602001600482018054610f9190615184565b80601f0160208091040260200160405190810160405280929190818152602001828054610fbd90615184565b801561100a5780601f10610fdf5761010080835404028352916020019161100a565b820191906000526020600020905b815481529060010190602001808311610fed57829003601f168201915b5050505050815260200160058201805461102390615184565b80601f016020809104026020016040519081016040528092919081815260200182805461104f90615184565b801561109c5780601f106110715761010080835404028352916020019161109c565b820191906000526020600020905b81548152906001019060200180831161107f57829003601f168201915b505050505081526020016006820180546110b590615184565b80601f01602080910402602001604051908101604052809291908181526020018280546110e190615184565b801561112e5780601f106111035761010080835404028352916020019161112e565b820191906000526020600020905b81548152906001019060200180831161111157829003601f168201915b505050505081526020016007820154815260200160088201805461115190615184565b80601f016020809104026020016040519081016040528092919081815260200182805461117d90615184565b80156111ca5780601f1061119f576101008083540402835291602001916111ca565b820191906000526020600020905b8154815290600101906020018083116111ad57829003601f168201915b505050505081526020016009820180546111e390615184565b80601f016020809104026020016040519081016040528092919081815260200182805461120f90615184565b801561125c5780601f106112315761010080835404028352916020019161125c565b820191906000526020600020905b81548152906001019060200180831161123f57829003601f168201915b505050505081525050905080600001518e848151811061127f5761127e61522c565b5b60200260200101818152505080602001518d84815181106112a3576112a261522c565b5b602002602001018190525080604001518c84815181106112c6576112c561522c565b5b602002602001018190525080606001518b84815181106112e9576112e861522c565b5b602002602001018190525080608001518a848151811061130c5761130b61522c565b5b60200260200101819052508060a0015189848151811061132f5761132e61522c565b5b60200260200101819052508060c001518884815181106113525761135161522c565b5b60200260200101819052508060e001518784815181106113755761137461522c565b5b60200260200101818152505080610120015186848151811061139a5761139961522c565b5b60200260200101819052508e73ffffffffffffffffffffffffffffffffffffffff166004600084815260200190815260200160002060000160009054906101000a900473ffffffffffffffffffffffffffffffffffffffff1673ffffffffffffffffffffffffffffffffffffffff16036114d05760046000838152602001908152602001600020600501805461142f90615184565b80601f016020809104026020016040519081016040528092919081815260200182805461145b90615184565b80156114a85780601f1061147d576101008083540402835291602001916114a8565b820191906000526020600020905b81548152906001019060200180831161148b57829003601f168201915b50505050508584815181106114c0576114bf61522c565b5b6020026020010181905250611850565b8e73ffffffffffffffffffffffffffffffffffffffff166004600084815260200190815260200160002060010160009054906101000a900473ffffffffffffffffffffffffffffffffffffffff1673ffffffffffffffffffffffffffffffffffffffff16036115fb5760046000838152602001908152602001600020600501805461155a90615184565b80601f016020809104026020016040519081016040528092919081815260200182805461158690615184565b80156115d35780601f106115a8576101008083540402835291602001916115d3565b820191906000526020600020905b8154815290600101906020018083116115b657829003601f168201915b50505050508584815181106115eb576115ea61522c565b5b602002602001018190525061184f565b8e73ffffffffffffffffffffffffffffffffffffffff166004600084815260200190815260200160002060020160009054906101000a900473ffffffffffffffffffffffffffffffffffffffff1673ffffffffffffffffffffffffffffffffffffffff16036117265760046000838152602001908152602001600020600601805461168590615184565b80601f01602080910402602001604051908101604052809291908181526020018280546116b190615184565b80156116fe5780601f106116d3576101008083540402835291602001916116fe565b820191906000526020600020905b8154815290600101906020018083116116e157829003601f168201915b50505050508584815181106117165761171561522c565b5b602002602001018190525061184e565b8e73ffffffffffffffffffffffffffffffffffffffff166004600084815260200190815260200160002060030160009054906101000a900473ffffffffffffffffffffffffffffffffffffffff1673ffffffffffffffffffffffffffffffffffffffff160361184d576004600083815260200190815260200160002060070180546117b090615184565b80601f01602080910402602001604051908101604052809291908181526020018280546117dc90615184565b80156118295780601f106117fe57610100808354040283529160200191611829565b820191906000526020600020905b81548152906001019060200180831161180c57829003601f168201915b50505050508584815181106118415761184061522c565b5b60200260200101819052505b5b5b5b828061185b906151e4565b935050505b808061186b906151e4565b915050610bea565b5050509193959799509193959799565b60025481565b8060008083815260200190815260200160002060000154146118e0576040517f08c379a00000000000000000000000000000000000000000000000000000000081526004016118d7906152a7565b60405180910390fd5b600073ffffffffffffffffffffffffffffffffffffffff166004600083815260200190815260200160002060020160009054906101000a900473ffffffffffffffffffffffffffffffffffffffff1673ffffffffffffffffffffffffffffffffffffffff1603611985576040517f08c379a000000000000000000000000000000000000000000000000000000000815260040161197c90615339565b60405180910390fd5b6040518060400160405280600f81526020017f5175616c69747920436865636b656400000000000000000000000000000000008152506040516020016119cb9190615395565b60405160208183030381529060405280519060200120600080838152602001908152602001600020600901604051602001611a069190615440565b6040516020818303038152906040528051906020012014611a5c576040517f08c379a0000000000000000000000000000000000000000000000000000000008152600401611a53906154a3565b60405180910390fd5b6040518060400160405280601681526020017f766572696669656420616e642044656c69766572656400000000000000000000815250604051602001611aa29190615395565b60405160208183030381529060405280519060200120600080838152602001908152602001600020600901604051602001611add9190615440565b6040516020818303038152906040528051906020012003611b33576040517f08c379a0000000000000000000000000000000000000000000000000000000008152600401611b2a9061550f565b60405180910390fd5b6040518060400160405280600981526020017f496e5472616e73697400000000000000000000000000000000000000000000008152506000808381526020019081526020016000206009019080519060200190611b91929190614466565b50807f3967c2893d6b650a1e29b22b59c4262a79c3d5c4db7092c106bc1f51cc88b4696000808481526020019081526020016000206002016004600085815260200190815260200160002060030160009054906101000a900473ffffffffffffffffffffffffffffffffffffffff16604051611c0e9291906155af565b60405180910390a250565b674563918244f400003414611c63576040517f08c379a0000000000000000000000000000000000000000000000000000000008152600401611c5a90615651565b60405180910390fd5b806000808381526020019081526020016000206000015414611cba576040517f08c379a0000000000000000000000000000000000000000000000000000000008152600401611cb1906152a7565b60405180910390fd5b6040518060400160405280601681526020017f766572696669656420616e642044656c69766572656400000000000000000000815250604051602001611d009190615395565b60405160208183030381529060405280519060200120600080838152602001908152602001600020600901604051602001611d3b9190615440565b6040516020818303038152906040528051906020012014611d91576040517f08c379a0000000000000000000000000000000000000000000000000000000008152600401611d88906156e3565b60405180910390fd5b6040518060400160405280600981526020017f70757263686173656400000000000000000000000000000000000000000000008152506000808381526020019081526020016000206009019080519060200190611def929190614466565b507f81d4bd66fd54154eb72812aef26b47faf7196f6c152884f12d9dea3f6ad0d5108160008084815260200190815260200160002060020133604051611e3793929190615703565b60405180910390a150565b826000808581526020019081526020016000206000015414611e99576040517f08c379a0000000000000000000000000000000000000000000000000000000008152600401611e90906152a7565b60405180910390fd5b600073ffffffffffffffffffffffffffffffffffffffff166004600085815260200190815260200160002060020160009054906101000a900473ffffffffffffffffffffffffffffffffffffffff1673ffffffffffffffffffffffffffffffffffffffff1603611f3e576040517f08c379a0000000000000000000000000000000000000000000000000000000008152600401611f3590615339565b60405180910390fd5b600073ffffffffffffffffffffffffffffffffffffffff166004600085815260200190815260200160002060030160009054906101000a900473ffffffffffffffffffffffffffffffffffffffff1673ffffffffffffffffffffffffffffffffffffffff1614611fe3576040517f08c379a0000000000000000000000000000000000000000000000000000000008152600401611fda906157b3565b60405180910390fd5b6040518060400160405280600f81526020017f5175616c69747920436865636b656400000000000000000000000000000000008152506000808581526020019081526020016000206009019080519060200190612041929190614466565b50816004600085815260200190815260200160002060030160006101000a81548173ffffffffffffffffffffffffffffffffffffffff021916908373ffffffffffffffffffffffffffffffffffffffff160217905550806004600085815260200190815260200160002060070190805190602001906120c1929190614466565b507f1b0ffe8fc77b877043111acecb92a2491744d2fd28de6284d2de77a4e4c24cf3836000808681526020019081526020016000206002018460405161210993929190615703565b60405180910390a1505050565b6000606080606080606080600060606000606060008c11801561213b57506002548c11155b61217a576040517f08c379a00000000000000000000000000000000000000000000000000000000081526004016121719061581f565b60405180910390fd5b60008060008e815260200190815260200160002060405180610140016040529081600082015481526020016001820180546121b490615184565b80601f01602080910402602001604051908101604052809291908181526020018280546121e090615184565b801561222d5780601f106122025761010080835404028352916020019161222d565b820191906000526020600020905b81548152906001019060200180831161221057829003601f168201915b5050505050815260200160028201805461224690615184565b80601f016020809104026020016040519081016040528092919081815260200182805461227290615184565b80156122bf5780601f10612294576101008083540402835291602001916122bf565b820191906000526020600020905b8154815290600101906020018083116122a257829003601f168201915b505050505081526020016003820180546122d890615184565b80601f016020809104026020016040519081016040528092919081815260200182805461230490615184565b80156123515780601f1061232657610100808354040283529160200191612351565b820191906000526020600020905b81548152906001019060200180831161233457829003601f168201915b5050505050815260200160048201805461236a90615184565b80601f016020809104026020016040519081016040528092919081815260200182805461239690615184565b80156123e35780601f106123b8576101008083540402835291602001916123e3565b820191906000526020600020905b8154815290600101906020018083116123c657829003601f168201915b505050505081526020016005820180546123fc90615184565b80601f016020809104026020016040519081016040528092919081815260200182805461242890615184565b80156124755780601f1061244a57610100808354040283529160200191612475565b820191906000526020600020905b81548152906001019060200180831161245857829003601f168201915b5050505050815260200160068201805461248e90615184565b80601f01602080910402602001604051908101604052809291908181526020018280546124ba90615184565b80156125075780601f106124dc57610100808354040283529160200191612507565b820191906000526020600020905b8154815290600101906020018083116124ea57829003601f168201915b505050505081526020016007820154815260200160088201805461252a90615184565b80601f016020809104026020016040519081016040528092919081815260200182805461255690615184565b80156125a35780601f10612578576101008083540402835291602001916125a3565b820191906000526020600020905b81548152906001019060200180831161258657829003601f168201915b505050505081526020016009820180546125bc90615184565b80601f01602080910402602001604051908101604052809291908181526020018280546125e890615184565b80156126355780601f1061260a57610100808354040283529160200191612635565b820191906000526020600020905b81548152906001019060200180831161261857829003601f168201915b50505050508152505090506000600460008f8152602001908152602001600020604051806101000160405290816000820160009054906101000a900473ffffffffffffffffffffffffffffffffffffffff1673ffffffffffffffffffffffffffffffffffffffff1673ffffffffffffffffffffffffffffffffffffffff1681526020016001820160009054906101000a900473ffffffffffffffffffffffffffffffffffffffff1673ffffffffffffffffffffffffffffffffffffffff1673ffffffffffffffffffffffffffffffffffffffff1681526020016002820160009054906101000a900473ffffffffffffffffffffffffffffffffffffffff1673ffffffffffffffffffffffffffffffffffffffff1673ffffffffffffffffffffffffffffffffffffffff1681526020016003820160009054906101000a900473ffffffffffffffffffffffffffffffffffffffff1673ffffffffffffffffffffffffffffffffffffffff1673ffffffffffffffffffffffffffffffffffffffff1681526020016004820160009054906101000a900473ffffffffffffffffffffffffffffffffffffffff1673ffffffffffffffffffffffffffffffffffffffff1673ffffffffffffffffffffffffffffffffffffffff16815260200160058201805461281f90615184565b80601f016020809104026020016040519081016040528092919081815260200182805461284b90615184565b80156128985780601f1061286d57610100808354040283529160200191612898565b820191906000526020600020905b81548152906001019060200180831161287b57829003601f168201915b505050505081526020016006820180546128b190615184565b80601f01602080910402602001604051908101604052809291908181526020018280546128dd90615184565b801561292a5780601f106128ff5761010080835404028352916020019161292a565b820191906000526020600020905b81548152906001019060200180831161290d57829003601f168201915b5050505050815260200160078201805461294390615184565b80601f016020809104026020016040519081016040528092919081815260200182805461296f90615184565b80156129bc5780601f10612991576101008083540402835291602001916129bc565b820191906000526020600020905b81548152906001019060200180831161299f57829003601f168201915b5050505050815250509050816000015182602001518360400151846060015185608001518660a001518760c001518860e0015189610100015189602001518b61012001519c509c509c509c509c509c509c509c509c509c509c50505091939597999b90929496989a50565b60036020528060005260406000206000915054906101000a900460ff1681565b816000808481526020019081526020016000206000015414612a9e576040517f08c379a0000000000000000000000000000000000000000000000000000000008152600401612a95906152a7565b60405180910390fd5b6003600083815260200190815260200160002060009054906101000a900460ff1615612aff576040517f08c379a0000000000000000000000000000000000000000000000000000000008152600401612af69061588b565b60405180910390fd5b8015612b69576040518060400160405280600f81526020017f5175616c69747920436865636b656400000000000000000000000000000000008152506000808481526020019081526020016000206009019080519060200190612b63929190614466565b50612bc9565b6040518060400160405280601481526020017f5175616c69747920436865636b204661696c65640000000000000000000000008152506000808481526020019081526020016000206009019080519060200190612bc7929190614466565b505b60016003600084815260200190815260200160002060006101000a81548160ff0219169083151502179055507ff2fc6f855f34e16ce8357677c7666cf10a630b84d306be159001ea4f63d4ef238260008085815260200190815260200160002060020183604051612c3c939291906158ab565b60405180910390a15050565b836000808681526020019081526020016000206000015414612c9f576040517f08c379a0000000000000000000000000000000000000000000000000000000008152600401612c96906152a7565b60405180910390fd5b82604051602001612cb09190615395565b6040516020818303038152906040528051906020012060046000868152602001908152602001600020600501604051602001612cec9190615440565b6040516020818303038152906040528051906020012014612d42576040517f08c379a0000000000000000000000000000000000000000000000000000000008152600401612d399061595b565b60405180910390fd5b81604051602001612d539190615395565b6040516020818303038152906040528051906020012060046000868152602001908152602001600020600601604051602001612d8f9190615440565b6040516020818303038152906040528051906020012014612de5576040517f08c379a0000000000000000000000000000000000000000000000000000000008152600401612ddc906159ed565b60405180910390fd5b80604051602001612df69190615395565b6040516020818303038152906040528051906020012060046000868152602001908152602001600020600701604051602001612e329190615440565b6040516020818303038152906040528051906020012014612e88576040517f08c379a0000000000000000000000000000000000000000000000000000000008152600401612e7f90615a7f565b60405180910390fd5b7ff2fc6f855f34e16ce8357677c7666cf10a630b84d306be159001ea4f63d4ef23846000808781526020019081526020016000206002016001604051612ed0939291906158ab565b60405180910390a16040518060400160405280601681526020017f766572696669656420616e642044656c697665726564000000000000000000008152506000808681526020019081526020016000206009019080519060200190612f36929190614466565b5050505050565b6000602052806000526040600020600091509050806000015490806001018054612f6690615184565b80601f0160208091040260200160405190810160405280929190818152602001828054612f9290615184565b8015612fdf5780601f10612fb457610100808354040283529160200191612fdf565b820191906000526020600020905b815481529060010190602001808311612fc257829003601f168201915b505050505090806002018054612ff490615184565b80601f016020809104026020016040519081016040528092919081815260200182805461302090615184565b801561306d5780601f106130425761010080835404028352916020019161306d565b820191906000526020600020905b81548152906001019060200180831161305057829003601f168201915b50505050509080600301805461308290615184565b80601f01602080910402602001604051908101604052809291908181526020018280546130ae90615184565b80156130fb5780601f106130d0576101008083540402835291602001916130fb565b820191906000526020600020905b8154815290600101906020018083116130de57829003601f168201915b50505050509080600401805461311090615184565b80601f016020809104026020016040519081016040528092919081815260200182805461313c90615184565b80156131895780601f1061315e57610100808354040283529160200191613189565b820191906000526020600020905b81548152906001019060200180831161316c57829003601f168201915b50505050509080600501805461319e90615184565b80601f01602080910402602001604051908101604052809291908181526020018280546131ca90615184565b80156132175780601f106131ec57610100808354040283529160200191613217565b820191906000526020600020905b8154815290600101906020018083116131fa57829003601f168201915b50505050509080600601805461322c90615184565b80601f016020809104026020016040519081016040528092919081815260200182805461325890615184565b80156132a55780601f1061327a576101008083540402835291602001916132a5565b820191906000526020600020905b81548152906001019060200180831161328857829003601f168201915b5050505050908060070154908060080180546132c090615184565b80601f01602080910402602001604051908101604052809291908181526020018280546132ec90615184565b80156133395780601f1061330e57610100808354040283529160200191613339565b820191906000526020600020905b81548152906001019060200180831161331c57829003601f168201915b50505050509080600901805461334e90615184565b80601f016020809104026020016040519081016040528092919081815260200182805461337a90615184565b80156133c75780601f1061339c576101008083540402835291602001916133c7565b820191906000526020600020905b8154815290600101906020018083116133aa57829003601f168201915b505050505090508a565b6001818051602081018201805184825260208301602085012081835280955050505050506000915090505481565b826000808581526020019081526020016000206000015414613456576040517f08c379a000000000000000000000000000000000000000000000000000000000815260040161344d906152a7565b60405180910390fd5b600073ffffffffffffffffffffffffffffffffffffffff166004600085815260200190815260200160002060010160009054906101000a900473ffffffffffffffffffffffffffffffffffffffff1673ffffffffffffffffffffffffffffffffffffffff16036134fb576040517f08c379a00000000000000000000000000000000000000000000000000000000081526004016134f290615b11565b60405180910390fd5b600073ffffffffffffffffffffffffffffffffffffffff166004600085815260200190815260200160002060020160009054906101000a900473ffffffffffffffffffffffffffffffffffffffff1673ffffffffffffffffffffffffffffffffffffffff16146135a0576040517f08c379a000000000000000000000000000000000000000000000000000000000815260040161359790615ba3565b60405180910390fd5b6040518060400160405280601681526020017f5368697070656420746f204469737472696275746f720000000000000000000081525060008085815260200190815260200160002060090190805190602001906135fe929190614466565b50816004600085815260200190815260200160002060020160006101000a81548173ffffffffffffffffffffffffffffffffffffffff021916908373ffffffffffffffffffffffffffffffffffffffff1602179055508060046000858152602001908152602001600020600601908051906020019061367e929190614466565b507f41353559274a73d815923a3ecb2061316a81fc02fbcea54ea356663cfa80a29d83600080868152602001908152602001600020600201846040516136c693929190615703565b60405180910390a1505050565b60006060806060806060806000606060008a1180156136f457506002548a11155b613733576040517f08c379a000000000000000000000000000000000000000000000000000000000815260040161372a9061581f565b60405180910390fd5b60008060008c8152602001908152602001600020604051806101400160405290816000820154815260200160018201805461376d90615184565b80601f016020809104026020016040519081016040528092919081815260200182805461379990615184565b80156137e65780601f106137bb576101008083540402835291602001916137e6565b820191906000526020600020905b8154815290600101906020018083116137c957829003601f168201915b505050505081526020016002820180546137ff90615184565b80601f016020809104026020016040519081016040528092919081815260200182805461382b90615184565b80156138785780601f1061384d57610100808354040283529160200191613878565b820191906000526020600020905b81548152906001019060200180831161385b57829003601f168201915b5050505050815260200160038201805461389190615184565b80601f01602080910402602001604051908101604052809291908181526020018280546138bd90615184565b801561390a5780601f106138df5761010080835404028352916020019161390a565b820191906000526020600020905b8154815290600101906020018083116138ed57829003601f168201915b5050505050815260200160048201805461392390615184565b80601f016020809104026020016040519081016040528092919081815260200182805461394f90615184565b801561399c5780601f106139715761010080835404028352916020019161399c565b820191906000526020600020905b81548152906001019060200180831161397f57829003601f168201915b505050505081526020016005820180546139b590615184565b80601f01602080910402602001604051908101604052809291908181526020018280546139e190615184565b8015613a2e5780601f10613a0357610100808354040283529160200191613a2e565b820191906000526020600020905b815481529060010190602001808311613a1157829003601f168201915b50505050508152602001600682018054613a4790615184565b80601f0160208091040260200160405190810160405280929190818152602001828054613a7390615184565b8015613ac05780601f10613a9557610100808354040283529160200191613ac0565b820191906000526020600020905b815481529060010190602001808311613aa357829003601f168201915b5050505050815260200160078201548152602001600882018054613ae390615184565b80601f0160208091040260200160405190810160405280929190818152602001828054613b0f90615184565b8015613b5c5780601f10613b3157610100808354040283529160200191613b5c565b820191906000526020600020905b815481529060010190602001808311613b3f57829003601f168201915b50505050508152602001600982018054613b7590615184565b80601f0160208091040260200160405190810160405280929190818152602001828054613ba190615184565b8015613bee5780601f10613bc357610100808354040283529160200191613bee565b820191906000526020600020905b815481529060010190602001808311613bd157829003601f168201915b5050505050815250509050806000015181602001518260400151836060015184608001518560a001518660c001518760e00151886101200151995099509950995099509950995099509950509193959799909294969850565b60006001600254613c589190615bc3565b90506040518061014001604052808281526020018a81526020018981526020018881526020018781526020018681526020018581526020018481526020018381526020016040518060400160405280601f81526020017f4d616e7566616374757265642c20726561647920746f20446973706174636800815250815250600080838152602001908152602001600020600082015181600001556020820151816001019080519060200190613d0d929190614466565b506040820151816002019080519060200190613d2a929190614466565b506060820151816003019080519060200190613d47929190614466565b506080820151816004019080519060200190613d64929190614466565b5060a0820151816005019080519060200190613d81929190614466565b5060c0820151816006019080519060200190613d9e929190614466565b5060e08201518160070155610100820151816008019080519060200190613dc6929190614466565b50610120820151816009019080519060200190613de4929190614466565b5090505080600183604051613df99190615395565b90815260200160405180910390208190555060026000815480929190613e1e906151e4565b91905055507f62d29c6235e7d73b0061604e755095afcdb5a5be3751f8ff7d95e2e04f793bd28189604051613e54929190615c19565b60405180910390a1505050505050505050565b674563918244f400003414613eb1576040517f08c379a0000000000000000000000000000000000000000000000000000000008152600401613ea890615651565b60405180910390fd5b806000808381526020019081526020016000206000015414613f08576040517f08c379a0000000000000000000000000000000000000000000000000000000008152600401613eff906152a7565b60405180910390fd5b6040518060400160405280601681526020017f766572696669656420616e642044656c69766572656400000000000000000000815250604051602001613f4e9190615395565b60405160208183030381529060405280519060200120600080838152602001908152602001600020600901604051602001613f899190615440565b6040516020818303038152906040528051906020012014613fdf576040517f08c379a0000000000000000000000000000000000000000000000000000000008152600401613fd6906156e3565b60405180910390fd5b600073ffffffffffffffffffffffffffffffffffffffff166004600083815260200190815260200160002060030160009054906101000a900473ffffffffffffffffffffffffffffffffffffffff1673ffffffffffffffffffffffffffffffffffffffff1603614084576040517f08c379a000000000000000000000000000000000000000000000000000000000815260040161407b90615cbb565b60405180910390fd5b60006004600083815260200190815260200160002060030160009054906101000a900473ffffffffffffffffffffffffffffffffffffffff1690508073ffffffffffffffffffffffffffffffffffffffff166108fc349081150290604051600060405180830381858888f19350505050158015614105573d6000803e3d6000fd5b50336004600084815260200190815260200160002060040160006101000a81548173ffffffffffffffffffffffffffffffffffffffff021916908373ffffffffffffffffffffffffffffffffffffffff1602179055506040518060400160405280600981526020017f507572636861736564000000000000000000000000000000000000000000000081525060008084815260200190815260200160002060090190805190602001906141b9929190614466565b507f81d4bd66fd54154eb72812aef26b47faf7196f6c152884f12d9dea3f6ad0d510826000808581526020019081526020016000206002013360405161420193929190615703565b60405180910390a15050565b826000808581526020019081526020016000206000015414614264576040517f08c379a000000000000000000000000000000000000000000000000000000000815260040161425b906152a7565b60405180910390fd5b600073ffffffffffffffffffffffffffffffffffffffff166004600085815260200190815260200160002060010160009054906101000a900473ffffffffffffffffffffffffffffffffffffffff1673ffffffffffffffffffffffffffffffffffffffff1614614309576040517f08c379a000000000000000000000000000000000000000000000000000000000815260040161430090615d27565b60405180910390fd5b6040518060400160405280601581526020017f5368697070656420746f2057686f6c6573616c657200000000000000000000008152506000808581526020019081526020016000206009019080519060200190614367929190614466565b50806000808581526020019081526020016000206008019080519060200190614391929190614466565b50816004600085815260200190815260200160002060010160006101000a81548173ffffffffffffffffffffffffffffffffffffffff021916908373ffffffffffffffffffffffffffffffffffffffff16021790555080600460008581526020019081526020016000206005019080519060200190614411929190614466565b507f7d4ee0d81a3d3397aa9fb75b6972d80186e15d085c053ba26b48cc1431db724b836000808681526020019081526020016000206002018460405161445993929190615703565b60405180910390a1505050565b82805461447290615184565b90600052602060002090601f01602090048101928261449457600085556144db565b82601f106144ad57805160ff19168380011785556144db565b828001600101855582156144db579182015b828111156144da5782518255916020019190600101906144bf565b5b5090506144e891906144ec565b5090565b5b808211156145055760008160009055506001016144ed565b5090565b6000604051905090565b600080fd5b600080fd5b6000819050919050565b6145308161451d565b811461453b57600080fd5b50565b60008135905061454d81614527565b92915050565b60006020828403121561456957614568614513565b5b60006145778482850161453e565b91505092915050565b600073ffffffffffffffffffffffffffffffffffffffff82169050919050565b60006145ab82614580565b9050919050565b6145bb816145a0565b82525050565b600081519050919050565b600082825260208201905092915050565b60005b838110156145fb5780820151818401526020810190506145e0565b8381111561460a576000848401525b50505050565b6000601f19601f8301169050919050565b600061462c826145c1565b61463681856145cc565b93506146468185602086016145dd565b61464f81614610565b840191505092915050565b600061010082019050614670600083018b6145b2565b61467d602083018a6145b2565b61468a60408301896145b2565b61469760608301886145b2565b6146a460808301876145b2565b81810360a08301526146b68186614621565b905081810360c08301526146ca8185614621565b905081810360e08301526146de8184614621565b90509998505050505050505050565b6146f6816145a0565b811461470157600080fd5b50565b600081359050614713816146ed565b92915050565b60006020828403121561472f5761472e614513565b5b600061473d84828501614704565b91505092915050565b600081519050919050565b600082825260208201905092915050565b6000819050602082019050919050565b61477b8161451d565b82525050565b600061478d8383614772565b60208301905092915050565b6000602082019050919050565b60006147b182614746565b6147bb8185614751565b93506147c683614762565b8060005b838110156147f75781516147de8882614781565b97506147e983614799565b9250506001810190506147ca565b5085935050505092915050565b600081519050919050565b600082825260208201905092915050565b6000819050602082019050919050565b600082825260208201905092915050565b600061484c826145c1565b6148568185614830565b93506148668185602086016145dd565b61486f81614610565b840191505092915050565b60006148868383614841565b905092915050565b6000602082019050919050565b60006148a682614804565b6148b0818561480f565b9350836020820285016148c285614820565b8060005b858110156148fe57848403895281516148df858261487a565b94506148ea8361488e565b925060208a019950506001810190506148c6565b50829750879550505050505092915050565b600061014082019050818103600083015261492b818d6147a6565b9050818103602083015261493f818c61489b565b90508181036040830152614953818b61489b565b90508181036060830152614967818a61489b565b9050818103608083015261497b818961489b565b905081810360a083015261498f818861489b565b905081810360c08301526149a3818761489b565b905081810360e08301526149b781866147a6565b90508181036101008301526149cc818561489b565b90508181036101208301526149e1818461489b565b90509b9a5050505050505050505050565b6149fb8161451d565b82525050565b6000602082019050614a1660008301846149f2565b92915050565b600080fd5b600080fd5b7f4e487b7100000000000000000000000000000000000000000000000000000000600052604160045260246000fd5b614a5e82614610565b810181811067ffffffffffffffff82111715614a7d57614a7c614a26565b5b80604052505050565b6000614a90614509565b9050614a9c8282614a55565b919050565b600067ffffffffffffffff821115614abc57614abb614a26565b5b614ac582614610565b9050602081019050919050565b82818337600083830152505050565b6000614af4614aef84614aa1565b614a86565b905082815260208101848484011115614b1057614b0f614a21565b5b614b1b848285614ad2565b509392505050565b600082601f830112614b3857614b37614a1c565b5b8135614b48848260208601614ae1565b91505092915050565b600080600060608486031215614b6a57614b69614513565b5b6000614b788682870161453e565b9350506020614b8986828701614704565b925050604084013567ffffffffffffffff811115614baa57614ba9614518565b5b614bb686828701614b23565b9150509250925092565b600061016082019050614bd6600083018e6149f2565b8181036020830152614be8818d614621565b90508181036040830152614bfc818c614621565b90508181036060830152614c10818b614621565b90508181036080830152614c24818a614621565b905081810360a0830152614c388189614621565b905081810360c0830152614c4c8188614621565b9050614c5b60e08301876149f2565b818103610100830152614c6e8186614621565b9050614c7e6101208301856145b2565b818103610140830152614c918184614621565b90509c9b505050505050505050505050565b60008115159050919050565b614cb881614ca3565b82525050565b6000602082019050614cd36000830184614caf565b92915050565b614ce281614ca3565b8114614ced57600080fd5b50565b600081359050614cff81614cd9565b92915050565b60008060408385031215614d1c57614d1b614513565b5b6000614d2a8582860161453e565b9250506020614d3b85828601614cf0565b9150509250929050565b60008060008060808587031215614d5f57614d5e614513565b5b6000614d6d8782880161453e565b945050602085013567ffffffffffffffff811115614d8e57614d8d614518565b5b614d9a87828801614b23565b935050604085013567ffffffffffffffff811115614dbb57614dba614518565b5b614dc787828801614b23565b925050606085013567ffffffffffffffff811115614de857614de7614518565b5b614df487828801614b23565b91505092959194509250565b600061014082019050614e16600083018d6149f2565b8181036020830152614e28818c614621565b90508181036040830152614e3c818b614621565b90508181036060830152614e50818a614621565b90508181036080830152614e648189614621565b905081810360a0830152614e788188614621565b905081810360c0830152614e8c8187614621565b9050614e9b60e08301866149f2565b818103610100830152614eae8185614621565b9050818103610120830152614ec38184614621565b90509b9a5050505050505050505050565b600060208284031215614eea57614ee9614513565b5b600082013567ffffffffffffffff811115614f0857614f07614518565b5b614f1484828501614b23565b91505092915050565b600061012082019050614f33600083018c6149f2565b8181036020830152614f45818b614621565b90508181036040830152614f59818a614621565b90508181036060830152614f6d8189614621565b90508181036080830152614f818188614621565b905081810360a0830152614f958187614621565b905081810360c0830152614fa98186614621565b9050614fb860e08301856149f2565b818103610100830152614fcb8184614621565b90509a9950505050505050505050565b600080600080600080600080610100898b031215614ffc57614ffb614513565b5b600089013567ffffffffffffffff81111561501a57615019614518565b5b6150268b828c01614b23565b985050602089013567ffffffffffffffff81111561504757615046614518565b5b6150538b828c01614b23565b975050604089013567ffffffffffffffff81111561507457615073614518565b5b6150808b828c01614b23565b965050606089013567ffffffffffffffff8111156150a1576150a0614518565b5b6150ad8b828c01614b23565b955050608089013567ffffffffffffffff8111156150ce576150cd614518565b5b6150da8b828c01614b23565b94505060a089013567ffffffffffffffff8111156150fb576150fa614518565b5b6151078b828c01614b23565b93505060c06151188b828c0161453e565b92505060e089013567ffffffffffffffff81111561513957615138614518565b5b6151458b828c01614b23565b9150509295985092959890939650565b7f4e487b7100000000000000000000000000000000000000000000000000000000600052602260045260246000fd5b6000600282049050600182168061519c57607f821691505b6020821081036151af576151ae615155565b5b50919050565b7f4e487b7100000000000000000000000000000000000000000000000000000000600052601160045260246000fd5b60006151ef8261451d565b91507fffffffffffffffffffffffffffffffffffffffffffffffffffffffffffffffff8203615221576152206151b5565b5b600182019050919050565b7f4e487b7100000000000000000000000000000000000000000000000000000000600052603260045260246000fd5b7f4d65646963696e6520646f6573206e6f74206578697374000000000000000000600082015250565b60006152916017836145cc565b915061529c8261525b565b602082019050919050565b600060208201905081810360008301526152c081615284565b9050919050565b7f4d65646963696e6520686173206e6f74206265656e20616c6c6f63617465642060008201527f746f2061206469737472696275746f7200000000000000000000000000000000602082015250565b60006153236030836145cc565b915061532e826152c7565b604082019050919050565b6000602082019050818103600083015261535281615316565b9050919050565b600081905092915050565b600061536f826145c1565b6153798185615359565b93506153898185602086016145dd565b80840191505092915050565b60006153a18284615364565b915081905092915050565b60008190508160005260206000209050919050565b600081546153ce81615184565b6153d88186615359565b945060018216600081146153f3576001811461540457615437565b60ff19831686528186019350615437565b61540d856153ac565b60005b8381101561542f57815481890152600182019150602081019050615410565b838801955050505b50505092915050565b600061544c82846153c1565b915081905092915050565b7f4d65646963696e65207175616c697479206e6f7420636865636b656420796574600082015250565b600061548d6020836145cc565b915061549882615457565b602082019050919050565b600060208201905081810360008301526154bc81615480565b9050919050565b7f4d65646963696e6520616c72656164792064656c697665726564000000000000600082015250565b60006154f9601a836145cc565b9150615504826154c3565b602082019050919050565b60006020820190508181036000830152615528816154ec565b9050919050565b6000815461553c81615184565b61554681866145cc565b945060018216600081146155615760018114615573576155a6565b60ff19831686526020860193506155a6565b61557c856153ac565b60005b8381101561559e5781548189015260018201915060208101905061557f565b808801955050505b50505092915050565b600060408201905081810360008301526155c9818561552f565b90506155d860208301846145b2565b9392505050565b7f45786163746c79203520657468657273206d7573742062652073656e7420746f60008201527f207075726368617365206d65646963696e650000000000000000000000000000602082015250565b600061563b6032836145cc565b9150615646826155df565b604082019050919050565b6000602082019050818103600083015261566a8161562e565b9050919050565b7f4d65646963696e65206e6f7420766572696669656420616e642064656c69766560008201527f7265642079657400000000000000000000000000000000000000000000000000602082015250565b60006156cd6027836145cc565b91506156d882615671565b604082019050919050565b600060208201905081810360008301526156fc816156c0565b9050919050565b600060608201905061571860008301866149f2565b818103602083015261572a818561552f565b905061573960408301846145b2565b949350505050565b7f4d65646963696e6520616c726561647920616c6c6f636174656420746f20686f60008201527f73706974616c0000000000000000000000000000000000000000000000000000602082015250565b600061579d6026836145cc565b91506157a882615741565b604082019050919050565b600060208201905081810360008301526157cc81615790565b9050919050565b7f496e76616c6964206d65646963696e6520494400000000000000000000000000600082015250565b60006158096013836145cc565b9150615814826157d3565b602082019050919050565b60006020820190508181036000830152615838816157fc565b9050919050565b7f4d65646963696e6520616c726561647920636865636b65640000000000000000600082015250565b60006158756018836145cc565b91506158808261583f565b602082019050919050565b600060208201905081810360008301526158a481615868565b9050919050565b60006060820190506158c060008301866149f2565b81810360208301526158d2818561552f565b90506158e16040830184614caf565b949350505050565b7f4d616e75666163747572657227732049504653206861736820646f6573206e6f60008201527f74206d6174636800000000000000000000000000000000000000000000000000602082015250565b60006159456027836145cc565b9150615950826158e9565b604082019050919050565b6000602082019050818103600083015261597481615938565b9050919050565b7f57686f6c6573616c657227732049504653206861736820646f6573206e6f742060008201527f6d61746368000000000000000000000000000000000000000000000000000000602082015250565b60006159d76025836145cc565b91506159e28261597b565b604082019050919050565b60006020820190508181036000830152615a06816159ca565b9050919050565b7f4469737472696275746f7227732049504653206861736820646f6573206e6f7460008201527f206d617463680000000000000000000000000000000000000000000000000000602082015250565b6000615a696026836145cc565b9150615a7482615a0d565b604082019050919050565b60006020820190508181036000830152615a9881615a5c565b9050919050565b7f4d65646963696e6520686173206e6f74206265656e20616c6c6f63617465642060008201527f746f20612077686f6c6573616c65720000000000000000000000000000000000602082015250565b6000615afb602f836145cc565b9150615b0682615a9f565b604082019050919050565b60006020820190508181036000830152615b2a81615aee565b9050919050565b7f4d65646963696e6520616c726561647920616c6c6f636174656420746f20646960008201527f737472696275746f720000000000000000000000000000000000000000000000602082015250565b6000615b8d6029836145cc565b9150615b9882615b31565b604082019050919050565b60006020820190508181036000830152615bbc81615b80565b9050919050565b6000615bce8261451d565b9150615bd98361451d565b9250827fffffffffffffffffffffffffffffffffffffffffffffffffffffffffffffffff03821115615c0e57615c0d6151b5565b5b828201905092915050565b6000604082019050615c2e60008301856149f2565b8181036020830152615c408184614621565b90509392505050565b7f4d65646963696e65206e6f7420616c6c6f636174656420746f20686f7370697460008201527f616c207965740000000000000000000000000000000000000000000000000000602082015250565b6000615ca56026836145cc565b9150615cb082615c49565b604082019050919050565b60006020820190508181036000830152615cd481615c98565b9050919050565b7f4d65646963696e6520616c726561647920616c6c6f6361746564000000000000600082015250565b6000615d11601a836145cc565b9150615d1c82615cdb565b602082019050919050565b60006020820190508181036000830152615d4081615d04565b905091905056fea264697066735822122015ce96b759264bd6170cb8ccdf8c79ada754926d1811c55e8f1666788a09b39664736f6c634300080d0033",
  "immutableReferences": {},
  "source": "//SPDX-License-Identifier: MIT\npragma solidity ^0.8.0;\n\ncontract SupplyChain {\n    string constant ManufacturingStatus = \"Manufactured, ready to Dispatch\";\n    string constant InTransitStatus = \"InTransit\";\n    string constant DeliveredStatus = \"verified and Delivered\";\n    string constant ManageInventoryStatus = \"Sent to Quality Check\";\n    string constant QualityCheckedStatus = \"Quality Checked\";\n    string constant QualityCheckFailedStatus = \"Quality Check Failed\";\n   \n\n    struct Medicine {\n        uint256 id;\n        string prefix;\n        string name;\n        string composition;\n        string description;\n        string manufacturerDate;\n        string expiryDate;\n        uint256 price;\n        string ipfsHash;\n        string currentStatus;\n        \n        //uint256 quantity; // Added quantity field for inventory management\n    }\n\n    struct MedicineOwnership {\n    address manufacturer;\n    address wholesaler;\n    address distributor;\n    address hospital;\n    address patient;\n    string ipfsHashMedicine;\n    string ipfsHashDistributor;\n    string ipfsHashHospital;\n    }\n\n\n    mapping(uint256 => Medicine) public medicines;\n    mapping(string => uint256) public medicineIdByIpfsHash;\n    uint256 public medicineCount;\n    mapping(uint256 => bool) public isMedicineChecked;\n    mapping(uint256 => MedicineOwnership) public medicineOwnership;\n\n    event MedicineCreated(uint256 id,  string name);\n    event MedicineAllocated(uint256 id, string name, address wholesaler);\n    event MedicineAllocatedToDistributor(uint256 id, string name, address distributor);\n    event MedicinePurchased(uint256 id, string name, address purchaser);\n    event QualityCheckPerformed(uint256 id, string name, bool check);\n    event MedicineShippedToHospital(uint256 indexed id, string name, address hospital);\n   event  MedicineAllocatedToHospital(uint256 id, string name , address hospital);\n   event MedicineReceived(uint256 id, string name, address hospital);\n    \n    constructor() {}\n\n    function createMedicine(\n        string memory _prefix,\n        string memory _name,\n        string memory _composition,\n        string memory _description,\n        string memory _manufacturerDate,\n        string memory _expiryDate,\n        uint256 _price,\n        string memory _ipfsHash\n    \n    ) external {\n        uint256 id = medicineCount + 1;\n        medicines[id] = Medicine({\n            id: id,\n            prefix: _prefix,\n            name: _name,\n            composition: _composition,\n            description: _description,\n            manufacturerDate: _manufacturerDate,\n            expiryDate: _expiryDate,\n            price: _price,\n            ipfsHash: _ipfsHash,\n            currentStatus: ManufacturingStatus\n            //quantity: 0\n        });\n\n\n\n        medicineIdByIpfsHash[_ipfsHash] = id;\n\n        medicineCount++;\n        emit MedicineCreated(id, _name);\n    }\n\n    function allocateMedicine(\n        uint256 _id,\n        address _wholesaler,\n        string memory _medicineIpfsHash\n    ) external {\n        require(medicines[_id].id == _id, \"Medicine does not exist\");\n        require(medicineOwnership[_id].wholesaler == address(0), \"Medicine already allocated\");\n\n         medicines[_id].currentStatus = \"Shipped to Wholesaler\";\n        \n\n        medicines[_id].ipfsHash = _medicineIpfsHash;\n        medicineOwnership[_id].wholesaler = _wholesaler;\n        medicineOwnership[_id].ipfsHashMedicine = _medicineIpfsHash;\n        emit MedicineAllocated(_id, medicines[_id].name, _wholesaler);\n    }\n\n\nfunction getAllocatedMedicineByAddress(address _address) external view returns (\n    uint256[] memory ids,\n    string[] memory prefixes,\n    string[] memory names,\n    string[] memory compositions,\n    string[] memory descriptions,\n    string[] memory manufacturerDates,\n    string[] memory expiryDates,\n    uint256[] memory prices,\n    string[] memory statuses,\n    string[] memory ipfsHashes\n) {\n    uint256 count = 0;\n    for (uint256 i = 1; i <= medicineCount; i++) {\n        if (\n            medicineOwnership[i].manufacturer == _address ||\n            medicineOwnership[i].wholesaler == _address ||\n            medicineOwnership[i].distributor == _address ||\n            medicineOwnership[i].hospital == _address\n        ) {\n            count++;\n        }\n    }\n\n    ids = new uint256[](count);\n    prefixes = new string[](count);\n    names = new string[](count);\n    compositions = new string[](count);\n    descriptions = new string[](count);\n    manufacturerDates = new string[](count);\n    expiryDates = new string[](count);\n    prices = new uint256[](count);\n    statuses = new string[](count);\n    ipfsHashes = new string[](count);\n\n    uint256 index = 0;\n    for (uint256 j = 1; j <= medicineCount; j++) {\n        if (\n            medicineOwnership[j].manufacturer == _address ||\n            medicineOwnership[j].wholesaler == _address ||\n            medicineOwnership[j].distributor == _address ||\n            medicineOwnership[j].hospital == _address\n        ) {\n            Medicine memory medicine = medicines[j];\n            ids[index] = medicine.id;\n            prefixes[index] = medicine.prefix;\n            names[index] = medicine.name;\n            compositions[index] = medicine.composition;\n            descriptions[index] = medicine.description;\n            manufacturerDates[index] = medicine.manufacturerDate;\n            expiryDates[index] = medicine.expiryDate;\n            prices[index] = medicine.price;\n            statuses[index] = medicine.currentStatus;\n\n            // Determine the IPFS hash based on ownership\n            if (medicineOwnership[j].manufacturer == _address) {\n                ipfsHashes[index] = medicineOwnership[j].ipfsHashMedicine;\n            } else if (medicineOwnership[j].wholesaler == _address) {\n                ipfsHashes[index] = medicineOwnership[j].ipfsHashMedicine;\n            } else if (medicineOwnership[j].distributor == _address) {\n                ipfsHashes[index] = medicineOwnership[j].ipfsHashDistributor;\n            } else if (medicineOwnership[j].hospital == _address) {\n                ipfsHashes[index] = medicineOwnership[j].ipfsHashHospital;\n            }\n            \n            index++;\n        }\n    }\n}\n\n\n\n\n    function getMedicineById(\n        uint256 _id\n    )\n        external\n        view\n        returns (\n            uint256 id,\n            string memory prefix,\n            string memory name,\n            string memory composition,\n            string memory description,\n            string memory manufacturerDate,\n            string memory expiryDate,\n            uint256 price,\n            string memory ipfsHash,\n            address wholesaler,\n            string memory currentStatus\n        )\n    {\n        require(_id > 0 && _id <= medicineCount, \"Invalid medicine ID\");\n\n        Medicine memory medicine = medicines[_id];\n        MedicineOwnership memory ownership = medicineOwnership[_id];\n        return (\n            medicine.id,\n           medicine.prefix,\n            medicine.name,\n            medicine.composition,\n            medicine.description,\n            medicine.manufacturerDate,\n            medicine.expiryDate,\n            medicine.price,\n            medicine.ipfsHash,\n            ownership.wholesaler,\n            medicine.currentStatus\n        );\n    }\n\n    function allocateDistributor(uint256 _id, address _distributor, string memory _ipfsHash) external {\n        require(medicines[_id].id == _id, \"Medicine does not exist\");\n        require(\n            medicineOwnership[_id].wholesaler != address(0),\n            \"Medicine has not been allocated to a wholesaler\"\n        );\n        require(\n            medicineOwnership[_id].distributor == address(0),\n            \"Medicine already allocated to distributor\"\n        );\n\n        medicines[_id].currentStatus = \"Shipped to Distributor\";\n\n        medicineOwnership[_id].distributor = _distributor;\n         medicineOwnership[_id].ipfsHashDistributor = _ipfsHash;\n        emit MedicineAllocatedToDistributor(\n            _id,\n            medicines[_id].name,\n            _distributor\n        );\n    }\n\n\n     function performQualityCheck(\n    uint256 _id,\n    bool _checkQuality\n   \n) external {\n    require(medicines[_id].id == _id, \"Medicine does not exist\");\n    require(!isMedicineChecked[_id], \"Medicine already checked\");\n\n    if (_checkQuality) {\n        medicines[_id].currentStatus = QualityCheckedStatus;\n    } else {\n        medicines[_id].currentStatus = QualityCheckFailedStatus;\n    }\n\n   \n\n    isMedicineChecked[_id] = true;\n\n    emit QualityCheckPerformed(_id, medicines[_id].name, _checkQuality);\n\n\n}\n\n\n function allocateMedicineToHospital(uint256 _id, address _hospital, string memory _ipfsHash) external {\n        require(medicines[_id].id == _id, \"Medicine does not exist\");\n        require(\n            medicineOwnership[_id].distributor != address(0),\n            \"Medicine has not been allocated to a distributor\"\n        );\n        require(\n            medicineOwnership[_id].hospital == address(0),\n            \"Medicine already allocated to hospital\"\n        );\n        \n        medicines[_id].currentStatus = \"Quality Checked\";\n\n        medicineOwnership[_id].hospital = _hospital;\n        medicineOwnership[_id].ipfsHashHospital = _ipfsHash;\n        emit MedicineAllocatedToHospital(\n            _id,\n            medicines[_id].name,\n            _hospital\n        );\n    }\n    \n    \n\n\n\nfunction shipMedicineToHospital(uint256 _id) external {\n    require(medicines[_id].id == _id, \"Medicine does not exist\");\n    require(\n        medicineOwnership[_id].distributor != address(0),\n        \"Medicine has not been allocated to a distributor\"\n    );\n    require(\n        keccak256(abi.encodePacked(medicines[_id].currentStatus)) == keccak256(abi.encodePacked(QualityCheckedStatus)),\n        \"Medicine quality not checked yet\"\n    );\n    require(\n        keccak256(abi.encodePacked(medicines[_id].currentStatus)) != keccak256(abi.encodePacked(DeliveredStatus)),\n        \"Medicine already delivered\"\n    );\n\n    // Update medicine status to \"InTransit\"\n    medicines[_id].currentStatus = InTransitStatus;\n\n    // Emit event to notify the shipment\n    emit MedicineShippedToHospital(_id, medicines[_id].name, medicineOwnership[_id].hospital);\n}\n\nfunction verifyIPFSHashes(uint256 _id, string memory _manufacturerHash, string memory _wholesalerHash, string memory _distributorHash) external {\n    require(medicines[_id].id == _id, \"Medicine does not exist\");\n\n    // Verify the manufacturer's IPFS hash\n    require(\n        keccak256(abi.encodePacked(medicineOwnership[_id].ipfsHashMedicine)) == keccak256(abi.encodePacked(_manufacturerHash)),\n        \"Manufacturer's IPFS hash does not match\"\n    );\n\n    // Verify the wholesaler's IPFS hash\n    require(\n        keccak256(abi.encodePacked(medicineOwnership[_id].ipfsHashDistributor)) == keccak256(abi.encodePacked(_wholesalerHash)),\n        \"Wholesaler's IPFS hash does not match\"\n    );\n\n    // Verify the distributor's IPFS hash\n    require(\n        keccak256(abi.encodePacked(medicineOwnership[_id].ipfsHashHospital)) == keccak256(abi.encodePacked(_distributorHash)),\n        \"Distributor's IPFS hash does not match\"\n    );\n\n    // Update medicine status to \"Quality Checked\"\n    //medicines[_id].currentStatus = QualityCheckedStatus;\n\n    // Emit event to notify the verification\n    emit QualityCheckPerformed(_id, medicines[_id].name, true);\n    \n    // Update medicine status to \"Delivered\"\n    medicines[_id].currentStatus = DeliveredStatus;\n}\n\n\nfunction sellMedicine(uint256 _id) external payable {\n    require(msg.value == 5 ether, \"Exactly 5 ethers must be sent to purchase medicine\");\n    require(medicines[_id].id == _id, \"Medicine does not exist\");\n    require(\n        keccak256(abi.encodePacked(medicines[_id].currentStatus)) == keccak256(abi.encodePacked(DeliveredStatus)),\n        \"Medicine not verified and delivered yet\"\n    );\n\n    // Update medicine status to \"Purchased\"\n    medicines[_id].currentStatus = \"purchased\";\n\n    // Emit event to notify the purchase\n    emit MedicinePurchased(_id, medicines[_id].name, msg.sender);\n}\n\nfunction buyMedicine(uint256 _id) external payable {\n    require(msg.value == 5 ether, \"Exactly 5 ethers must be sent to purchase medicine\");\n    require(medicines[_id].id == _id, \"Medicine does not exist\");\n    require(\n        keccak256(abi.encodePacked(medicines[_id].currentStatus)) == keccak256(abi.encodePacked(DeliveredStatus)),\n        \"Medicine not verified and delivered yet\"\n    );\n    require(medicineOwnership[_id].hospital != address(0), \"Medicine not allocated to hospital yet\");\n\n    // Transfer 5 ethers from the buyer to the hospital\n    address payable hospitalAddress = payable(medicineOwnership[_id].hospital);\n    hospitalAddress.transfer(msg.value);\n\n   medicineOwnership[_id].patient = msg.sender;\n\n\n    // Update medicine status to \"Purchased\"\n    medicines[_id].currentStatus = \"Purchased\";\n\n    // Emit event to notify the purchase\n    emit MedicinePurchased(_id, medicines[_id].name, msg.sender);\n}\n\nfunction trackMedicine(uint256 _id) external view returns (\n    uint256 id,\n    string memory prefix,\n    string memory name,\n    string memory composition,\n    string memory description,\n    string memory manufacturerDate,\n    string memory expiryDate,\n    uint256 price,\n   // string memory ipfsHash,\n    string memory currentStatus\n) {\n    require(_id > 0 && _id <= medicineCount, \"Invalid medicine ID\");\n\n    Medicine memory medicine = medicines[_id];\n    //MedicineOwnership memory ownership = medicineOwnership[_id];\n\n    return (\n        medicine.id,\n        medicine.prefix,\n        medicine.name,\n        medicine.composition,\n        medicine.description,\n        medicine.manufacturerDate,\n        medicine.expiryDate,\n        medicine.price,\n        //medicine.ipfsHash,\n        medicine.currentStatus\n    );\n}\n\n\n// function updateMedicineStatus(uint256 _id, string memory _status) external {\n//     require(_id > 0 && _id <= medicineCount, \"Invalid medicine ID\");\n//     Medicine storage medicine = medicines[_id];\n//     medicine.currentStatus = _status;\n//     medicine.statusHistory.push(_status); // Add the new status to status history\n// }\n\n// function trackMedicine(uint256 _id) external view returns (\n//     uint256 id,\n//     string memory prefix,\n//     string memory name,\n//     string memory composition,\n//     string memory description,\n//     string memory manufacturerDate,\n//     string memory expiryDate,\n//     uint256 price,\n//     string memory currentStatus,\n//     string[] memory statusHistory // Return status history\n// ) {\n//     require(_id > 0 && _id <= medicineCount, \"Invalid medicine ID\");\n//     Medicine memory medicine = medicines[_id];\n//     return (\n//         medicine.id,\n//         medicine.prefix,\n//         medicine.name,\n//         medicine.composition,\n//         medicine.description,\n//         medicine.manufacturerDate,\n//         medicine.expiryDate,\n//         medicine.price,\n//         medicine.currentStatus,\n//         medicine.statusHistory\n//     );\n// }\n\n\n\n\n\n\n\n}\n\n",
  "sourcePath": "/Users/rsdhanushree/Desktop/supply-chain-truffle-react/contracts/SupplyChain.sol",
  "compiler": {
    "name": "solc",
    "version": "0.8.13+commit.abaa5c0e.Emscripten.clang"
  },
  "schemaVersion": "3.4.16",
  "updatedAt": "2024-05-29T04:28:55.678Z",
  "networkType": "ethereum",
  "devdoc": {
    "kind": "dev",
    "methods": {},
    "version": 1
  },
  "userdoc": {
    "kind": "user",
    "methods": {},
    "version": 1
  }
}